{
  "contractName": "Owned",
  "abi": [
    {
      "constant": false,
      "inputs": [],
      "name": "owned",
      "outputs": [],
      "payable": false,
      "stateMutability": "nonpayable",
      "type": "function"
    }
  ],
  "bytecode": "0x60606040523415600e57600080fd5b60c48061001c6000396000f300606060405260043610603f576000357c0100000000000000000000000000000000000000000000000000000000900463ffffffff168063df32754b146044575b600080fd5b3415604e57600080fd5b60546056565b005b336000806101000a81548173ffffffffffffffffffffffffffffffffffffffff021916908373ffffffffffffffffffffffffffffffffffffffff1602179055505600a165627a7a72305820c0658d27b302acc1fdcd5cedd8bb4cfa74b83707d2a9071d516e8e29e4c6db590029",
  "source": "pragma solidity ^0.4.0;\n\ncontract Owned {\n    address owner;\n    \n    modifier onlyowner(){\n        if (msg.sender == owner) {\n            _;\n        }\n    }\n    \n    function owned () public {\n        owner = msg.sender;\n    }\n}",
  "sourcePath": "/Users/DJ/Dropbox/PREWORK_DJ/Code/ERC20Exchange/contracts/owned.sol",
  "compiler": {
    "name": "solc",
    "version": "0.4.19+commit.c4cbbb05.Emscripten.clang"
  },
  "schemaVersion": "2.0.0",
  "updatedAt": "2018-03-09T21:38:36.771Z"
}