{
  "contractName": "Exchange",
  "abi": [
    {
      "constant": false,
      "inputs": [],
      "name": "acceptOwnership",
      "outputs": [],
      "payable": false,
      "stateMutability": "nonpayable",
      "type": "function"
    },
    {
      "constant": true,
      "inputs": [],
      "name": "owner",
      "outputs": [
        {
          "name": "",
          "type": "address"
        }
      ],
      "payable": false,
      "stateMutability": "view",
      "type": "function"
    },
    {
      "constant": true,
      "inputs": [],
      "name": "newOwner",
      "outputs": [
        {
          "name": "",
          "type": "address"
        }
      ],
      "payable": false,
      "stateMutability": "view",
      "type": "function"
    },
    {
      "constant": false,
      "inputs": [
        {
          "name": "_newOwner",
          "type": "address"
        }
      ],
      "name": "transferOwnership",
      "outputs": [],
      "payable": false,
      "stateMutability": "nonpayable",
      "type": "function"
    },
    {
      "anonymous": false,
      "inputs": [
        {
          "indexed": true,
          "name": "_from",
          "type": "address"
        },
        {
          "indexed": true,
          "name": "_to",
          "type": "address"
        }
      ],
      "name": "OwnershipTransferred",
      "type": "event"
    },
    {
      "constant": false,
      "inputs": [],
      "name": "depositEther",
      "outputs": [],
      "payable": true,
      "stateMutability": "payable",
      "type": "function"
    },
    {
      "constant": false,
      "inputs": [
        {
          "name": "amountInWei",
          "type": "uint256"
        }
      ],
      "name": "withdrawEther",
      "outputs": [],
      "payable": false,
      "stateMutability": "nonpayable",
      "type": "function"
    },
    {
      "constant": true,
      "inputs": [],
      "name": "getEthBalanceInWei",
      "outputs": [
        {
          "name": "",
          "type": "uint256"
        }
      ],
      "payable": false,
      "stateMutability": "view",
      "type": "function"
    },
    {
      "constant": false,
      "inputs": [
        {
          "name": "symbolName",
          "type": "string"
        },
        {
          "name": "erc20TokenAddress",
          "type": "address"
        }
      ],
      "name": "addToken",
      "outputs": [],
      "payable": false,
      "stateMutability": "nonpayable",
      "type": "function"
    },
    {
      "constant": true,
      "inputs": [
        {
          "name": "symbolName",
          "type": "string"
        }
      ],
      "name": "hasToken",
      "outputs": [
        {
          "name": "",
          "type": "bool"
        }
      ],
      "payable": false,
      "stateMutability": "view",
      "type": "function"
    },
    {
      "constant": false,
      "inputs": [
        {
          "name": "symbolName",
          "type": "string"
        },
        {
          "name": "amount",
          "type": "uint256"
        }
      ],
      "name": "depositToken",
      "outputs": [],
      "payable": false,
      "stateMutability": "nonpayable",
      "type": "function"
    },
    {
      "constant": false,
      "inputs": [
        {
          "name": "symbolName",
          "type": "string"
        },
        {
          "name": "amount",
          "type": "uint256"
        }
      ],
      "name": "withdrawToken",
      "outputs": [],
      "payable": false,
      "stateMutability": "nonpayable",
      "type": "function"
    },
    {
      "constant": true,
      "inputs": [
        {
          "name": "symbolName",
          "type": "string"
        }
      ],
      "name": "getBalance",
      "outputs": [
        {
          "name": "",
          "type": "uint256"
        }
      ],
      "payable": false,
      "stateMutability": "view",
      "type": "function"
    }
  ],
  "bytecode": "0x6060604052336000806101000a81548173ffffffffffffffffffffffffffffffffffffffff021916908373ffffffffffffffffffffffffffffffffffffffff1602179055506114b8806100536000396000f3006060604052600436106100ba576000357c0100000000000000000000000000000000000000000000000000000000900463ffffffff1680631a8eb72b146100bf57806333ad57e4146100e85780633a51d2461461014e5780633bed33ce146101bf57806379ba5097146101e25780638da5cb5b146101f75780638ea008181461024c57806398ea5fca146102c1578063b0b22c2c146102cb578063c97a413a14610347578063d4ee1d90146103ad578063f2fde38b14610402575b600080fd5b34156100ca57600080fd5b6100d261043b565b6040518082815260200191505060405180910390f35b34156100f357600080fd5b61014c600480803590602001908201803590602001908080601f01602080910402602001604051908101604052809392919081815260200183838082843782019150505050505091908035906020019091905050610482565b005b341561015957600080fd5b6101a9600480803590602001908201803590602001908080601f0160208091040260200160405190810160405280939291908181526020018383808284378201915050505050509190505061077a565b6040518082815260200191505060405180910390f35b34156101ca57600080fd5b6101e060048080359060200190919050506107e7565b005b34156101ed57600080fd5b6101f5610957565b005b341561020257600080fd5b61020a610af6565b604051808273ffffffffffffffffffffffffffffffffffffffff1673ffffffffffffffffffffffffffffffffffffffff16815260200191505060405180910390f35b341561025757600080fd5b6102a7600480803590602001908201803590602001908080601f01602080910402602001604051908101604052809392919081815260200183838082843782019150505050505091905050610b1b565b604051808215151515815260200191505060405180910390f35b6102c9610b49565b005b34156102d657600080fd5b610345600480803590602001908201803590602001908080601f0160208091040260200160405190810160405280939291908181526020018383808284378201915050505050509190803573ffffffffffffffffffffffffffffffffffffffff16906020019091905050610c27565b005b341561035257600080fd5b6103ab600480803590602001908201803590602001908080601f01602080910402602001604051908101604052809392919081815260200183838082843782019150505050505091908035906020019091905050610d1c565b005b34156103b857600080fd5b6103c06110ec565b604051808273ffffffffffffffffffffffffffffffffffffffff1673ffffffffffffffffffffffffffffffffffffffff16815260200191505060405180910390f35b341561040d57600080fd5b610439600480803573ffffffffffffffffffffffffffffffffffffffff16906020019091905050611112565b005b6000600560003373ffffffffffffffffffffffffffffffffffffffff1673ffffffffffffffffffffffffffffffffffffffff16815260200190815260200160002054905090565b60008061048e846111b1565b9150600073ffffffffffffffffffffffffffffffffffffffff16600260008460ff1660ff16815260200190815260200160002060000160009054906101000a900473ffffffffffffffffffffffffffffffffffffffff1673ffffffffffffffffffffffffffffffffffffffff161415151561050857600080fd5b600260008360ff1660ff16815260200190815260200160002060000160009054906101000a900473ffffffffffffffffffffffffffffffffffffffff169050600115158173ffffffffffffffffffffffffffffffffffffffff166323b872dd3330876000604051602001526040518463ffffffff167c0100000000000000000000000000000000000000000000000000000000028152600401808473ffffffffffffffffffffffffffffffffffffffff1673ffffffffffffffffffffffffffffffffffffffff1681526020018373ffffffffffffffffffffffffffffffffffffffff1673ffffffffffffffffffffffffffffffffffffffff1681526020018281526020019350505050602060405180830381600087803b151561062a57600080fd5b6102c65a03f1151561063b57600080fd5b50505060405180519050151514151561065357600080fd5b600460003373ffffffffffffffffffffffffffffffffffffffff1673ffffffffffffffffffffffffffffffffffffffff16815260200190815260200160002060008360ff1660ff1681526020019081526020016000205483600460003373ffffffffffffffffffffffffffffffffffffffff1673ffffffffffffffffffffffffffffffffffffffff16815260200190815260200160002060008560ff1660ff16815260200190815260200160002054011015151561071057600080fd5b82600460003373ffffffffffffffffffffffffffffffffffffffff1673ffffffffffffffffffffffffffffffffffffffff16815260200190815260200160002060008460ff1660ff1681526020019081526020016000206000828254019250508190555050505050565b600080610786836111b1565b9050600460003373ffffffffffffffffffffffffffffffffffffffff1673ffffffffffffffffffffffffffffffffffffffff16815260200190815260200160002060008260ff1660ff16815260200190815260200160002054915050919050565b600081600560003373ffffffffffffffffffffffffffffffffffffffff1673ffffffffffffffffffffffffffffffffffffffff16815260200190815260200160002054031015151561083857600080fd5b600560003373ffffffffffffffffffffffffffffffffffffffff1673ffffffffffffffffffffffffffffffffffffffff1681526020019081526020016000205481600560003373ffffffffffffffffffffffffffffffffffffffff1673ffffffffffffffffffffffffffffffffffffffff1681526020019081526020016000205403111515156108c757600080fd5b80600560003373ffffffffffffffffffffffffffffffffffffffff1673ffffffffffffffffffffffffffffffffffffffff168152602001908152602001600020600082825403925050819055503373ffffffffffffffffffffffffffffffffffffffff166108fc829081150290604051600060405180830381858888f19350505050151561095457600080fd5b50565b600160009054906101000a900473ffffffffffffffffffffffffffffffffffffffff1673ffffffffffffffffffffffffffffffffffffffff163373ffffffffffffffffffffffffffffffffffffffff161415156109b357600080fd5b600160009054906101000a900473ffffffffffffffffffffffffffffffffffffffff1673ffffffffffffffffffffffffffffffffffffffff166000809054906101000a900473ffffffffffffffffffffffffffffffffffffffff1673ffffffffffffffffffffffffffffffffffffffff167f8be0079c531659141344cd1fd0a4f28419497f9722a3daafe3b4186f6b6457e060405160405180910390a3600160009054906101000a900473ffffffffffffffffffffffffffffffffffffffff166000806101000a81548173ffffffffffffffffffffffffffffffffffffffff021916908373ffffffffffffffffffffffffffffffffffffffff1602179055506000600160006101000a81548173ffffffffffffffffffffffffffffffffffffffff021916908373ffffffffffffffffffffffffffffffffffffffff160217905550565b6000809054906101000a900473ffffffffffffffffffffffffffffffffffffffff1681565b600080610b27836111da565b905060008160ff161415610b3e5760009150610b43565b600191505b50919050565b600560003373ffffffffffffffffffffffffffffffffffffffff1673ffffffffffffffffffffffffffffffffffffffff1681526020019081526020016000205434600560003373ffffffffffffffffffffffffffffffffffffffff1673ffffffffffffffffffffffffffffffffffffffff168152602001908152602001600020540110151515610bd857600080fd5b34600560003373ffffffffffffffffffffffffffffffffffffffff1673ffffffffffffffffffffffffffffffffffffffff16815260200190815260200160002060008282540192505081905550565b610c3082610b1b565b151515610c3c57600080fd5b6003600081819054906101000a900460ff168092919060010191906101000a81548160ff021916908360ff160217905550508160026000600360009054906101000a900460ff1660ff1660ff1681526020019081526020016000206001019080519060200190610cad9291906113d3565b508060026000600360009054906101000a900460ff1660ff1660ff16815260200190815260200160002060000160006101000a81548173ffffffffffffffffffffffffffffffffffffffff021916908373ffffffffffffffffffffffffffffffffffffffff1602179055505050565b600080610d28846111b1565b9150600073ffffffffffffffffffffffffffffffffffffffff16600260008460ff1660ff16815260200190815260200160002060000160009054906101000a900473ffffffffffffffffffffffffffffffffffffffff1673ffffffffffffffffffffffffffffffffffffffff1614151515610da257600080fd5b600260008360ff1660ff16815260200190815260200160002060000160009054906101000a900473ffffffffffffffffffffffffffffffffffffffff169050600115158173ffffffffffffffffffffffffffffffffffffffff166323b872dd3330876000604051602001526040518463ffffffff167c0100000000000000000000000000000000000000000000000000000000028152600401808473ffffffffffffffffffffffffffffffffffffffff1673ffffffffffffffffffffffffffffffffffffffff1681526020018373ffffffffffffffffffffffffffffffffffffffff1673ffffffffffffffffffffffffffffffffffffffff1681526020018281526020019350505050602060405180830381600087803b1515610ec457600080fd5b6102c65a03f11515610ed557600080fd5b505050604051805190501515141515610eed57600080fd5b600460003373ffffffffffffffffffffffffffffffffffffffff1673ffffffffffffffffffffffffffffffffffffffff16815260200190815260200160002060008360ff1660ff1681526020019081526020016000205483600460003373ffffffffffffffffffffffffffffffffffffffff1673ffffffffffffffffffffffffffffffffffffffff16815260200190815260200160002060008560ff1660ff168152602001908152602001600020540311151515610faa57600080fd5b82600460003373ffffffffffffffffffffffffffffffffffffffff1673ffffffffffffffffffffffffffffffffffffffff16815260200190815260200160002060008460ff1660ff16815260200190815260200160002060008282540392505081905550600115158173ffffffffffffffffffffffffffffffffffffffff1663a9059cbb33866000604051602001526040518363ffffffff167c0100000000000000000000000000000000000000000000000000000000028152600401808373ffffffffffffffffffffffffffffffffffffffff1673ffffffffffffffffffffffffffffffffffffffff16815260200182815260200192505050602060405180830381600087803b15156110bd57600080fd5b6102c65a03f115156110ce57600080fd5b5050506040518051905015151415156110e657600080fd5b50505050565b600160009054906101000a900473ffffffffffffffffffffffffffffffffffffffff1681565b6000809054906101000a900473ffffffffffffffffffffffffffffffffffffffff1673ffffffffffffffffffffffffffffffffffffffff163373ffffffffffffffffffffffffffffffffffffffff1614151561116d57600080fd5b80600160006101000a81548173ffffffffffffffffffffffffffffffffffffffff021916908373ffffffffffffffffffffffffffffffffffffffff16021790555050565b6000806111bd836111da565b905060008160ff161115156111d157600080fd5b80915050919050565b600080600190505b600360009054906101000a900460ff1660ff168160ff1611151561123f57611225600260008360ff1660ff1681526020019081526020016000206001018461124a565b1561123257809150611244565b80806001019150506111e2565b600091505b50919050565b600080611255611453565b600085925084915081518380546001816001161561010002031660029004905014151561128557600093506113ca565b600090505b828054600181600116156101000203166002900490508110156113c55781818151811015156112b557fe5b9060200101517f010000000000000000000000000000000000000000000000000000000000000090047f0100000000000000000000000000000000000000000000000000000000000000027effffffffffffffffffffffffffffffffffffffffffffffffffffffffffffff19168382815460018160011615610100020316600290048110151561134157fe5b8154600116156113605790600052602060002090602091828204019190065b9054901a7f0100000000000000000000000000000000000000000000000000000000000000027effffffffffffffffffffffffffffffffffffffffffffffffffffffffffffff19161415156113b857600093506113ca565b808060010191505061128a565b600193505b50505092915050565b828054600181600116156101000203166002900490600052602060002090601f016020900481019282601f1061141457805160ff1916838001178555611442565b82800160010185558215611442579182015b82811115611441578251825591602001919060010190611426565b5b50905061144f9190611467565b5090565b602060405190810160405280600081525090565b61148991905b8082111561148557600081600090555060010161146d565b5090565b905600a165627a7a72305820fecfbe4ccdfdb47b0649c91c8ef2772a3a94b935d20c8a5f1461935a3157d6890029",
  "source": "pragma solidity ^0.4.0;\n\nimport \"./FixedSupplyToken.sol\";\n\ncontract Exchange is Owned {\n    \n    struct Offer {\n        uint amount;\n        address who;\n        \n    }\n    \n    struct OrderBook {\n        uint higherPrice;\n        uint lowerPrice;\n        \n        mapping(uint => Offer) offers;\n        \n        uint offers_key;\n        uint offers_length;\n        \n    }\n    \n    struct Token {\n        address tokenContract;\n        string symbolName;\n        \n        mapping(uint => OrderBook) buyBook;\n        uint curBuyPrice;\n        uint lowestBuyPrice;\n        uint amountBuyPrices;\n        \n        mapping(uint => OrderBook) sellBook;\n        uint curSellPrice;\n        uint lowestSellPrice;\n        uint amountSellPrices;\n        \n    }\n    \n    mapping (uint8 => Token) tokens;\n    \n    uint8 symbolNameIndex;\n    \n    //Balances//\n    \n    mapping(address => mapping(uint8 => uint)) tokenBalanceForAddress;\n    \n    mapping(address => uint) balanceEthForAddresses;\n    \n    //Events//\n    \n    \n    //Withdraw/deposit Ether//\n    \n    function depositEther() payable public {\n        require(balanceEthForAddresses[msg.sender] + msg.value >= balanceEthForAddresses[msg.sender]);\n        balanceEthForAddresses[msg.sender] += msg.value;\n    }\n    \n    function withdrawEther(uint amountInWei) public {\n        require(balanceEthForAddresses[msg.sender] - amountInWei >= 0);\n        require(balanceEthForAddresses[msg.sender] - amountInWei <= balanceEthForAddresses[msg.sender]);\n        balanceEthForAddresses[msg.sender] -= amountInWei;\n        msg.sender.transfer(amountInWei);\n        \n    }\n    \n    function getEthBalanceInWei() public constant returns (uint) {\n        return balanceEthForAddresses[msg.sender];\n    }\n    \n    //Token Management//\n    \n    function addToken(string symbolName, address erc20TokenAddress) public {\n        require(!hasToken(symbolName));\n        symbolNameIndex++;\n        tokens[symbolNameIndex].symbolName = symbolName;\n        tokens[symbolNameIndex].tokenContract = erc20TokenAddress;\n    }\n    \n    function hasToken(string symbolName) public constant returns (bool) {\n        uint8 index = getSymbolIndex(symbolName);\n        if (index == 0) {\n            return false;\n        }\n        return true;\n        \n    }\n    \n    function getSymbolIndex(string symbolName) view internal returns (uint8) {\n        for (uint8 i = 1; i <= symbolNameIndex; i++ ) {\n            if (stringsEqual(tokens[i].symbolName, symbolName)) {\n                return i;\n            }\n        }\n        return 0;\n    }\n\n    function getSymbolIndexOrThrow(string symbolName) view internal returns (uint8) {\n        uint8 index = getSymbolIndex(symbolName);\n        require(index > 0);\n        return index;\n    }\n    \n    //imported String comparison function//\n    \n    function stringsEqual(string storage _a, string memory _b) view internal returns(bool) {\n        bytes storage a = bytes(_a);\n        bytes memory b = bytes(_b);\n        if (a.length != b.length)\n            return false;\n            \n        for (uint i = 0; i < a.length; i++)\n            if (a[i] != b[i])\n                return false;\n        return true;       \n    }\n\n    //Deposit tokens//\n    function depositToken(string symbolName, uint amount) public {\n        uint8 index = getSymbolIndexOrThrow(symbolName);\n        require(tokens[index].tokenContract != address(0));\n        ERC20Interface token = ERC20Interface(tokens[index].tokenContract);\n        require(token.transferFrom(msg.sender, address(this), amount) == true);\n        require(tokenBalanceForAddress[msg.sender][index] + amount >= tokenBalanceForAddress[msg.sender][index]);\n        tokenBalanceForAddress[msg.sender][index] += amount;\n\n    }\n\n    function withdrawToken(string symbolName, uint amount) public {\n        uint8 index = getSymbolIndexOrThrow(symbolName);\n        require(tokens[index].tokenContract != address(0));\n        ERC20Interface token = ERC20Interface(tokens[index].tokenContract);\n        require(token.transferFrom(msg.sender, address(this), amount) == true);\n        require(tokenBalanceForAddress[msg.sender][index] - amount <= tokenBalanceForAddress[msg.sender][index]);\n        tokenBalanceForAddress[msg.sender][index] -= amount;\n        require(token.transfer(msg.sender, amount) == true);\n    }\n\n    function getBalance(string symbolName) public constant returns (uint){\n        uint8 index = getSymbolIndexOrThrow(symbolName);\n        return tokenBalanceForAddress[msg.sender][index];\n    }\n    \n    //get order books//\n    \n    // function getBuyOrderBook(string symbolName) constant returns (uint[], uint[]) {\n        \n    // }\n    \n    // function getSellOrderBook(string symbolName) constant returns (uint[], uint[]){\n        \n    // }\n    \n    // //Bid order//\n    \n    // function buyToken(string symbolName, uint priceInWei, uint amount){\n        \n    // }\n    \n    // //Ask Order//\n    \n    // function sellToken(string symbolName, uint priceInWei, uint amount){\n        \n    // }\n    \n    // //Cancel Order//\n    \n    // function cancelOrder(string symbolName, bool isSellOrder, uint priceInWei, uint offerKey){\n        \n    // }\n    \n}",
  "sourcePath": "/Users/DJ/Dropbox/PREWORK_DJ/Code/ERC20Exchange/contracts/Exchange.sol",
  "compiler": {
    "name": "solc",
    "version": "0.4.19+commit.c4cbbb05.Emscripten.clang"
  },
  "schemaVersion": "2.0.0",
  "updatedAt": "2018-03-06T01:57:14.989Z"
}